:020000040000FA
:060000005DEF17F0120095
:0600080004EF08F01200F5
:060018000CEF08F01200DD
:061000005DEF17F0120085
:02100600FFFFEA
:0610080053EF11F012008D
:02100E001200CE
:03101000000000DD
:021016001401C3
:061018005DEF12F0120072
:02101E000100CF
:0C10200010100000EF01000003000000B1
:04102C00D9CFE6FF33
:10103000E1CFD9FFE652A0940F015F6B626A536B58
:10104000020EE66EE66AE66A540EE66E0F0EE66E75
:101050001CEC17F00B6E050EE15E0B50160E616E68
:101060000F019F0E5B6F7B0E606EDF6ADF500B6EB1
:101070000C6A0C0E0B5C000E0C5810E2DF50040DD5
:10108000F3CFE9FFF4CFEAFF000EE926020EEA22D1
:10109000EE6AEE6AEE6AEE6ADF2AE8D7648C0F0128
:1010A0005C6B6498649C62A607D062960001786BC2
:1010B0007D6B7E6B7F6BF7D70001010E916F926F96
:1010C000936B946B856BDF6A030EDF5C26E2EA6A42
:1010D000DF34FE0BEA36E96E6E0EE926000EEA22D8
:1010E000EE6AED6AEA6ADF34FE0BEA36E96E680EF4
:1010F000E926000EEA22EE6AED6ADF50EA6A890FFD
:10110000E96E000EEA22EF6ADF50EA6A8C0FE96EA0
:10111000000EEA22EF6ADF2AD7D70001080E6E6FB1
:10112000020E6F6F0F01160E536F0201300E026F29
:10113000020E036F080E016F840E006F0001616BD9
:10114000606BE552E552E7CFD9FF1200D9CFE6FF39
:10115000E1CFD9FFE6520001600507E164BA05D08E
:10116000626A60806088020E606F6250040B06E065
:101170006050040B03E062948FEC0EF064B25AD01E
:101180006250010B09E06050010B06E04FDFA084C4
:101190000001040E606F62906250100B06E0605018
:1011A000100B03E07AEC0EF0629862AC19D060ACE0
:1011B0000FD0010EE66EE66A000EE66EE66A730E6A
:1011C000E66EE66A8CEC13F00B6E060EE15E0B50D9
:1011D000629C00018F5101E08F078F5101E1FDD921
:1011E0006250200B05E06050200B02E060EC0EF036
:1011F0006250020B14E06050020B11E0010EE66E2B
:10120000E66A000EE66EE66AE6687F0EE66E8CEC35
:1012100013F00B6E060EE15E0B500F015F6B040EB8
:101220000001E76E6019E8AE02D0E73402D0E75063
:10123000605D02E2A19439D060A636D0DF6A040E68
:10124000DF5C32E262A630D063CF86F000018651C7
:10125000780BE842E842E842876F629686B506D08E
:101260008751EA6A8C0FE96E000E05D08751EA6A51
:10127000890FE96E000EEA22EF70875103E1A6ECB8
:101280000EF010D0000EE66EE66A860EE66E000ED8
:10129000E66E720EE66EE66A8CEC13F00B6E060ECE
:1012A000E15E0B50DF2ACBD7A194E552E552E7CFA0
:1012B000D9FF1200D9CFE6FFE1CFD9FF020EE12618
:1012C000FD0EDBA407D0E66AFE0EDBCFE6FF14DAE4
:1012D000E552E552FD0EDBA208D0010EE66EFE0ED1
:1012E000DBCFE6FF09DAE552E552FE0EDB500C6A71
:1012F000530F0B6E0F0E0C220BC0DEFF0CC0DDFF78
:10130000DECFE9FFDDCFEAFFFD0EDBCFEFFF020E00
:10131000E15C02E2E16AE552E16EE552E7CFD9FF16
:101320001200D9CFE6FFE1CFD9FF020EE126FD0E74
:10133000DB500AE0FE0EEA6ADB34FE0BEA36E96EA9
:101340006E0EE926000E09D0FE0EEA6ADB34FE0BB3
:10135000EA36E96E680EE926000EEA22EECFDEFFDD
:10136000EDCFDDFFD9CFE9FFDACFEAFFEE50ED1088
:1013700003E1F36AF46A44D0DECFE9FFDDCFEAFF90
:10138000020EE926000EEA22FB0EDBCFEEFFFC0E7A
:10139000DBCFEDFFDECFE9FFDDCFEAFFEE52FA0E45
:1013A000DBCFEFFF400EDECFE9FFDDCFEAFFE850F5
:1013B000EF16880EDECFE9FFDDCFEAFFE850EF122F
:1013C000FD0EDB500AE0FE0EEA6ADB34FE0BEA3665
:1013D000E96E6E0EE926000E09D0FE0EEA6ADB34D5
:1013E000FE0BEA36E96E680EE926000EEA22EF747B
:1013F000DECF0BF0DDCF0CF00BC0F3FF0CC0F4FF21
:10140000020EE15C02E2E16AE552E16EE552E7CFED
:10141000D9FF1200D9CFE6FFE1CFD9FF020EE126B6
:10142000FE0EDB5020E166C0E9FF67C0EAFFEE5226
:10143000080EEF6E66C0E9FF67C0EAFF020EE926FC
:10144000000EEA22300EEE6E020EED6E66C0E9FF6F
:1014500067C0EAFF8C0EEF6E6EC0E9FF6FC0EAFF57
:10146000840EEF6E3BD0FD0EDB50E8240D6EFE0EB9
:10147000DB50040DF3500D24040DF3CF0BF0F4CF2B
:101480000CF0000E0B26020E0C220BC0DEFF0CC06F
:10149000DDFF840EDECFE9FFDDCFEAFFE850EF127B
:1014A000FD0EDB50E8240D6EFE0EDB50040DF350F4
:1014B0000D24010F040DF3CF0BF0F4CF0CF0000E50
:1014C0000B26020E0C220BC0DEFF0CC0DDFF840ECB
:1014D000DECFE9FFDDCFEAFFE850EF12020EE15C5C
:1014E00002E2E16AE552E16EE552E7CFD9FF120070
:1014F000D9CFE6FFE1CFD9FF64A84ED0FE0EEA6A4D
:10150000DB34FE0BEA36E96E6E0EE926000EEA22A7
:10151000EE50EFCFEAFFE96E400EEE16EE6AEE6A8D
:10152000EE6AFE0EEA6ADB34FE0BEA36E96E6E0EF8
:10153000E926000EEA22EE50EFCFEAFFE96EEE7CDC
:10154000FE0EEA6ADB34FE0BEA36E96E6E0EE92621
:10155000000EEA22EF74400E0B6EFE0EEA6ADB34D8
:10156000FE0BEA36E96E6E0EE926000EEA22EE5018
:10157000EFCFEAFFE96E0B50EF16FE0EEA6ADB349E
:10158000FE0BEA36E96E6E0EE926000EEA22EE50F8
:10159000EFCFEAFFE96EEF7CE552E7CFD9FF12000B
:1015A000646A606A0001606B12000001605114E11E
:1015B000646A606A160E616E0F019F0E5B6F7B0E90
:1015C000606ED08EA284A084F28E64B602D064864F
:1015D000FCD70001010E606F1200000191514DE136
:1015E000010E916F925149E1010E926F020E755DED
:1015F0000DE16EC0E9FF6FC0EAFFEE52EF6A6EC008
:10160000E9FF6FC0EAFFC80EEF6E1200750535E105
:10161000886B64C0E9FF65C0EAFFEE52080EEF6E0A
:1016200064C0E9FF65C0EAFF020EE926000EEA2267
:10163000300EEE6E020EED6E64C0E9FF65C0EAFF8B
:10164000840EEF6E010E886F66C0E9FF67C0EAFF87
:10165000EE52080EEF6E66C0E9FF67C0EAFF020EA9
:10166000E926000EEA22300EEE6E020EED6E66C026
:10167000E9FF67C0EAFF800EEF6E12000001936B76
:10168000946B020E755D18E166C0E9FF67C0EAFF62
:10169000EE52080EEF6E66C0E9FF67C0EAFF020E69
:1016A000E926000EEA22380EEE6E020EED6E66C0DE
:1016B000E9FF67C0EAFF1DD079510201365D0001E4
:1016C0007A510201375904E236C279F037C27AF012
:1016D000CAD86EC0E9FF6FC0EAFF020EE926000E0D
:1016E000EA22380EEE6E020EED6E6EC0E9FF6FC09C
:1016F000EAFFC80EEF6E1200D9CFE6FFE1CFD9FFA7
:10170000020EE126000EDE6E020EDD6EFD0EDB50D7
:10171000E8240D6EFE0EDB50040DF3500D24040D75
:10172000F4CF0CF0D9CFE9FFDACFEAFFF350EE2681
:101730000C50ED22DECFE9FFDDCFEAFFEF9EFD0E7C
:10174000DB500AE1FE0EEA6ADB34FE0BEA36E96E94
:10175000680EE926000E09D0FE0EEA6ADB34FE0BA5
:10176000EA36E96E6E0EE926000EEA22DECFEEFFC3
:10177000DDCFEDFFDECFE9FFDDCFEAFFEF9CDECF6F
:10178000E9FFDDCFEAFF040EE926000EEA22EF8C26
:10179000020EE15C02E2E16AE552E16EE552E7CF5A
:1017A000D9FF12006498000178BF2BD07DAF09D01B
:1017B000020E756F945101E161DF0001926B916B34
:1017C000120066C0E9FF67C0EAFFEE52080EEF6E36
:1017D00066C0E9FF67C0EAFF020EE926000EEA22B2
:1017E000300EEE6E020EED6E66C0E9FF67C0EAFFD6
:1017F0008C0EEF6E6EC0E9FF6FC0EAFF840EEF6ED5
:101800001200020130AF0DD00001010E756F93512F
:1018100001E134DF0001926B916B905123E1EDEF18
:101820000AF00001020E756F66C0E9FF67C0EAFFAB
:10183000EE52080EEF6E66C0E9FF67C0EAFF020EC7
:10184000E926000EEA22300EEE6E020EED6E66C044
:10185000E9FF67C0EAFF840EEF6E926B916B9051C7
:1018600001E1BBDE1200D9CFE6FFE1CFD9FFE6529E
:10187000080EDF6E0001795D000E7A590AE279C028
:10188000DFFF745102E1010E03D0740502E1020E84
:10189000746FDF500C6AE850795D796F0C507A599B
:1018A0007A6F6EC0E9FF6FC0EAFFEE52DFCFEFFF45
:1018B000380E826F020E836F78B118D0DF502DE0A2
:1018C00076C0F6FF77C0F7FF762B000E772308006F
:1018D000F550E66E82C0E9FF83C0EAFF822B000E5E
:1018E0008323E552E750EF6EDF06E8D7DF5015E0BF
:1018F00076C0E9FF77C0EAFF762B000E7723EF5022
:10190000E66E82C0E9FF83C0EAFF822B000E8323CC
:10191000E552E750EF6EDF06E9D7E552E552E7CF33
:10192000D9FF1200D9CFE6FFE1CFD9FF020EE126A1
:1019300064C0E9FF65C0EAFFEE52EFCFDFFFDFCF03
:101940000BF00B5000017E5D000E7F5902E27EC05D
:10195000DFFFDF500B6E0C6AE8507E5D7E6F0C502F
:101960007F597F6F010EDB6ADF50F36E010EDBCF14
:10197000F4FFF350F45C16E2010EDB50EA6A380F14
:10198000E96E020EEA22EF50E66E7BC0E9FF7CC0F2
:10199000EAFF7B2B000E7C23E552E750EF6E010E31
:1019A000DB2AE2D7000ED8807E55000E7F5527E255
:1019B00066C0E9FF67C0EAFFEE52080EEF6E66C030
:1019C000E9FF67C0EAFF020EE926000EEA22380EA0
:1019D000EE6E020EED6E64C0E9FF65C0EAFFEF50E7
:1019E000400B06E166C0E9FF67C0EAFFC80E05D0FC
:1019F00066C0E9FF67C0EAFF880EEF6E28D066C0B8
:101A0000E9FF67C0EAFFEE52080EEF6E66C0E9FF1D
:101A100067C0EAFF020EE926000EEA22300EEE6EE3
:101A2000020EED6E66C0E9FF67C0EAFF840EEF6E3E
:101A30008051811107E005D081C0FAFF000180517B
:101A4000F96EFADF00017D9F905101E1C6DD020EC3
:101A5000E15C02E2E16AE552E16EE552E7CFD9FFCF
:101A60001200D9CFE6FFE1CFD9FFE6520001788F0F
:101A7000020EE66EE66AE66A540EE66E0F0EE66E3B
:101A80001CEC17F00B6E050EE15E0B50300EE66E8F
:101A9000E66AE66A000EE66E020EE66E1CEC17F0D1
:101AA0000B6E050EE15E0B50648CDF6A030EDF5C8B
:101AB00010E2DF50EA6A890FE96E000EEA22EF6A4F
:101AC000DF50EA6A8C0FE96E000EEA22EF6ADF2A25
:101AD000EDD7020EE66EE66AE66A620EE66E000E6C
:101AE000E66E1CEC17F00B6E050EE15E0B50649C6D
:101AF0000001080E6E6F020E6F6F000E646F020E13
:101B0000656F64C066F0676F32C261F0615102E1D7
:101B1000100E12D0010EE66EE66A610EE66E000E41
:101B2000E66E010EE66EE66A8CEC13F00B6E060EA6
:101B3000E15E0B500001200E606FE552E552E7CFE9
:101B4000D9FF1200800E0201305D58E10001C00E85
:101B5000786F02013351030A2FE0010A09E0030AFA
:101B60004BE10001840E766F2C0E776F120E3ED083
:101B70003251F66EF76AD890F636F736290EF62609
:101B80002D0EF7220900F5CF76F00A00F5CF77F099
:101B9000020E0001F76A7625F66E7751F7220800EB
:101BA000F5CF79F0030EF76A7625F66E7751F722B6
:101BB0000800F5CF7AF01200030E325D1AE23251BE
:101BC000F66EF76AD890F636F7362B0EF6262D0EFF
:101BD000F7220900F5CF76F00A00F5CF77F076C04E
:101BE000F6FF77C0F7FF0800F5500001796F7A6BB8
:101BF00012000001786B12000001786B1200D9CF3F
:101C0000E6FFE1CFD9FF020EE1260201386B396B06
:101C100030511F0B020A11E0030A0CE0010A3CE1FB
:101C20000001788F020138810001840535E102014D
:101C3000388332D00001788F2FD00001788F0201D5
:101C400034BF0BD034510F0BE96EEA6AD890E936F5
:101C5000EA36680EE926000E0AD034510F0BE96E01
:101C6000EA6AD890E936EA366E0EE926000EEA22D4
:101C7000EECFDEFFEDCFDDFFDECFE9FFDDCFEAFF08
:101C8000EF50800B09E0DECFE9FFDDCFEAFFEF5038
:101C9000040B02E0010E386F000178AF07D0380E58
:101CA000766F020E776F7881020E796F020EE15C1B
:101CB00002E2E16AE552E16EE552E7CFD9FF120098
:101CC0000F0153A115D064C0E9FF65C0EAFFEF50D2
:101CD00080080DE16EC0E9FF6FC0EAFFEF50840895
:101CE00006E164C0E9FF65C0EAFF8C0EEF6E539118
:101CF000629A12006084629864820001010E856F0E
:101D0000000EE66EE66AE66EE66A750EE66EE66A56
:101D10008CEC13F00B6E060EE15E0B50120000010E
:101D2000856B000EE66EE66AE66EE66A740EE66E97
:101D3000E66A8CEC13F00B6E060EE15E0B506492BB
:101D4000609462A402D06294FCD71200D9CFE6FF5F
:101D5000E1CFD9FFE65200012D0E8F6FFD0E8615E3
:101D600053E17E0E8615E8407F0B040DF3CF64F03F
:101D7000F4CF65F0000E6427020E652364C066F0A0
:101D800065C067F0667564C0E9FF65C0EAFFEF50A3
:101D90003C0BE842E8420D0835E1DF6A080EDF5CE3
:101DA00023E264C0E9FF65C0EAFF020EE926000EE7
:101DB000EA22EE50EFCFEAFFE96EEF50E66EDF5019
:101DC000EA6A300FE96E020EEA22E552E750EF6E42
:101DD00064C0E9FF65C0EAFF020EE926000EEA22B0
:101DE000EE2AEF22DF2ADAD764C0E9FF65C0EAFFF6
:101DF000020EE926000EEA22300EEE6E020EED6EA5
:101E00000DD807D03AD805D0FD0E8615040801E19B
:101E100059D8E552E552E7CFD9FF12000001746BA3
:101E2000906B936B946B886B756B6EC0E9FF6FC0A2
:101E3000EAFFEF9E6E756EC0E9FF6FC0EAFFEF9E8E
:101E40006E7566C0E9FF67C0EAFFEF9E786B796B3D
:101E50007A6B7D6B7E6B7F6B8FD8000EE66EE66AC9
:101E6000E66EE66A030EE66EE66A8CEC13F00B6E25
:101E7000060EE15E0B50D2EF0BF0020E0001755D15
:101E800002E192EF0CF0756B88511AE166C0E9FF30
:101E900067C0EAFFEE52080EEF6E66C0E9FF67C04A
:101EA000EAFF020EE926000EEA22300EEE6E020E66
:101EB000ED6E66C0E9FF67C0EAFF8C0EEF6E1200A0
:101EC000886B1200D9CFE6FFE1CFD9FFE6526EC092
:101ED000E9FF6FC0EAFFEF50400B01E0010EDF6E3B
:101EE00000016E75080E605D0BE132C25CFF0F01F0
:101EF0005C5103E00001100E02D00001040E606F7F
:101F0000750526E16EC0E9FF6FC0EAFF020EE92603
:101F1000000EEA22380EEE6E020EED6EA4DC020E0A
:101F20000001745D06E16EC0E9FF6FC0EAFF840E38
:101F30000DD0DF5006E16EC0E9FF6FC0EAFFC80EAA
:101F400005D06EC0E9FF6FC0EAFF880EEF6E0FD0BC
:101F50007DAF0CD08051811107E005D081C0FAFF20
:101F600000018051F96EFADF00017D9F756BE5522B
:101F7000E552E7CFD9FF120002013051600BE84271
:101F8000E842E842E842E842000901E0120031512B
:101F90000C0A50E00B0A3FE00C0A31E0010A22E093
:101FA0000B0A1EE0020A1CE0030A18E0080A10E00F
:101FB000010A0CE00F0A08E0030A01E01200000128
:101FC000788F080E606F1200A2EF0DF031EF0DF068
:101FD0000001610E766F000E776F0CD0FFEF0DF0F1
:101FE0001BEF10F034510001766F776B620E76278D
:101FF000000E77237881010E796F788F120000012F
:10200000788F02013451EA6A620FE96E000EEA220B
:1020100032C2EFFF1200000EE66EE66AE66EE66A76
:10202000020EE66EE66A8CEC13F00B6E060EE15EB5
:102030000B5012001200D9CFE6FFE1CFD9FF050EF9
:10204000E1260201320510E130511F0B00090CE1BD
:102050000001788F030E0201315D04E10001010EE1
:10206000846F02D00001846B0201325101E011D172
:1020700030511F0B020801E00CD134510F0B000945
:1020800001E107D134510F0B020801E202D1200E09
:102090000001605D01E0FDD0788F020134BF16D0F1
:1020A00034510F0BE96EEA6AD890E936EA36680EC9
:1020B000E926000EEA22EECFDEFFEDCFDDFF345140
:1020C0000F0BEA6A8C0FE96E000E15D034510F0B1E
:1020D000E96EEA6AD890E936EA366E0EE926000E15
:1020E000EA22EECFDEFFEDCFDDFF34510F0BEA6ABF
:1020F000890FE96E000EEA22020EEFCFDBFFD95006
:10210000020FE96EDACFEAFFEF50010B03E1000E98
:10211000DF9401D0DF8434BF0BD034510F0BE96E54
:10212000EA6AD890E936EA36680EE926000E0AD047
:1021300034510F0BE96EEA6AD890E936EA366E0E32
:10214000E926000EEA22DECFEEFFDDCFEDFF030E23
:10215000315D20E1DECFE9FFDDCFEAFFEF50800BFC
:1021600011E034BF07D034510F0BEA6A8C0FE96ECF
:10217000000E06D034510F0BEA6A890FE96E000E8B
:10218000EA22EF82840EDECFE9FFDDCFEAFFE850DE
:10219000EF127FD0DF74DECFE9FFDDCFEAFFEF5033
:1021A000800B1BE0DECFE9FFDDCFEAFFEF9EDECF45
:1021B000E9FFDDCFEAFFEF8C020EE66EE66ADECFC6
:1021C000E6FFDDCFE6FF050EE66EE66A8CEC13F067
:1021D0000B6E060EE15E0B5005D0DECFE9FFDDCFC2
:1021E000EAFFEF8CDF74D950020FE96EDACFEAFF15
:1021F000EF50020B07E1DECFE9FFDDCFEAFFEF5042
:10220000800B2BE0020134BF07D034510F0BEA6A78
:102210008C0FE96E000E06D034510F0BEA6A890F5D
:10222000E96E000EEA22EF923B0E0B6EDECFE9FF65
:10223000DDCFEAFFE850EF16020EE66EE66ADECF6B
:10224000E6FFDDCFE6FF050EE66EE66A8CEC13F0E6
:102250000B6E060EE15E0B5007D03B0EDECFE9FFA2
:10226000DDCFEAFFE850EF16020134510F0B0C6A84
:10227000530F0B6E0F0E0C22030E0BC0DBFF040E70
:102280000CC0DBFF030EDBCFE9FF040EDBCFEAFF60
:10229000EF90050EE15C02E2E16AE552E16EE55283
:0622A000E7CFD9FF120098
:0A22A600DACFE4FFE2CFDAFFE9CF60
:1022B000E4FFEACFE4FFF6CFE4FFF7CFE4FFF5CF8A
:1022C000E4FFF3CFE4FFF4CFE4FFFACFE4FF00EE46
:1022D00000F00B0EE80403E3EECFE4FFFBD700EEC3
:1022E0000BF0030EE80403E3EECFE4FFFBD7E65266
:1022F000D9CFE6FFE1CFD9FF020EE126A6EC08F028
:10230000F2A4AED0500ED76E380ED66EF2948B92E9
:1023100036EC17F00101D06F36EC17F00101D16FE8
:1023200036EC17F00101D26F36EC17F00101D36FD4
:102330008B82DE6ADD6ADECF0EF0DDCF0FF0D89043
:102340000F5004E6040E0E5C000E0F5824E2DECFA0
:10235000E9FFDDCFEAFFD00EE926010EEA22EF50B9
:1023600015E0DECFE9FFDDCFEAFFD00EE926010E52
:10237000EA22EF50E66EDECFE9FFDDCFEAFFD80EAE
:10238000E926010EEA22E552E750EF6EDF2A010E40
:10239000D2E3DB2AD0D7070E0101D3150E6E000E53
:1023A000E76E0E18E8AE02D00E3403D0E750D880A6
:1023B0000E540EE3010ED1150F6E000EE76E0F18CE
:1023C000E8AE02D00F3403D0E750D8800F5402E2B9
:1023D0008B8401D08B940101EF51E8B08B86E8A08B
:1023E0008B96300EEF5D03E10101010E02D0010179
:1023F000030ED46FD56BD66BD76B040EDE6EDD6A21
:10240000DECF0EF0DDCF0FF0D8900F5004E6080EAF
:102410000E5C000E0F5824E2DECFE9FFDDCFEAFFAD
:10242000D00EE926010EEA22EF5015E0DECFE9FFDB
:10243000DDCFEAFFD00EE926010EEA22EF50E66E6C
:10244000DECFE9FFDDCFEAFFD80EE926010EEA2252
:10245000E552E750EF6EDF2A010ED2E3DB2AD0D738
:10246000020EE15C02E2E16AE552E16EE552E7CF7D
:10247000D9FFE55200EE0DF0030EE80403E3E5CFCB
:10248000EDFFFBD700EE0AF00B0EE80403E3E5CF07
:10249000EDFFFBD7E5CFFAFFE5CFF4FFE5CFF3FF84
:1024A000E5CFF5FFE5CFF7FFE5CFF6FFE5CFEAFF94
:1024B000E5CFE9FFE5CFDAFF1100D8CFE4FFE0CFA9
:1024C000E4FFE46EDACFE4FFE652E552E5CFDAFF4F
:1024D000E550E5CFE0FFE5CFD8FF1000D59CD59AB9
:1024E000D596D584D592D590500ED76E380ED66E2F
:1024F000D58ED08EF28CF28EF28AF28AF184F2942A
:10250000D58EF28E120018D8E9DF946A8B808B8208
:102510003F0E936E7F94800EE66EE66A010EE66EC5
:10252000E8EC16F0E552E552E5520001605102E197
:10253000D5EC0AF007D8F9D70F0EC11202D816EF62
:1025400008F01200D9CFE6FFE1CFD9FF050EE12652
:10255000200E0001E76E6019E8AE02D0E73402D029
:10256000E750605D4CE36450020B49E10001965175
:1025700044E1400EE66EB00EE66E010EE66E9DEC96
:1025800014F0E552E552E552E76E040EE7CFDBFFAB
:10259000DB5033E001013F0E706FD8C171F1D9C13A
:1025A00072F1DAC173F1DBC174F1DCC175F1DDC127
:1025B00076F1DEC177F1DFC178F1160EF66E100EFE
:1025C000F76E0800F5CF79F1170EF66E100EF76E64
:1025D0000800F5CF7AF1010E7B6F7C6F3F0E7D6FA7
:1025E0000E0EE66E700EE66E010EE66EFDEC14F059
:1025F000E552E552E552B0C1EFF19BEC15F0050E46
:10260000E15C02E2E16AE552E16EE552E7CFD9FF13
:1026100012000101F051F11104E1100EF06F270ECC
:10262000F16FF007000EF15B64A207D0F051F111D9
:102630002EE18B708BB013D027D00001605102E1E6
:102640008B9022D0600502E18B8009D0020E605D84
:1026500002E18B8019D0040E605D03E18B908B82C8
:102660001200100E605D06E10101F051F1110FE161
:102670008B700AD0200E605D0AE10101F051F1116A
:1026800006E18B708BA002D08B9212008B8212001D
:10269000120012008050080B01E0010E0101E15D03
:1026A0000DE1E25102E0E20712008050080B080A37
:1026B00001E0010EE16F640EE26F1200E25101E0F1
:1026C000E20712001200D6EF13F0120024EF14F00C
:1026D0000001840520E1000185051DE1A094D9DFFA
:1026E00064920001856B0101100EE36F0E0EE46F22
:1026F000E307000EE45BE351E411FAE16484080EA1
:10270000E36F070EE46FE307000EE45BE351E411AF
:10271000FAE16494A0841200D9CFE6FFE1CFD9FF9B
:10272000FD0EDBCF06F0FE0EDBCF07F0050E061820
:1027300001E1075036E0E868061802E17F0E07184D
:102740002FE0030E061801E1075028E0020E0618DC
:1027500001E1075021E0010E061801E107501AE0DF
:10276000740E061801E1075013E0750E061801E11A
:1027700007500CE0730E061801E1075005E0720ED9
:1027800006180FE107500DD085DF0BD081DF09D08F
:1027900080DF07D09BDF05D098DF03D094DF01D026
:0C27A00091DF010EE552E7CFD9FF1200D7
:0427AC0002013051A5
:1027B0001F0B010801E012003051600BE842E842B3
:1027C000E842E842E842010801E01200345103E027
:1027D000340501E012003151220A31E0030A24E0FD
:1027E000010A15E0210A0DE0010A01E012000001D2
:1027F000A60E766F000E776F080E796F7A6B788170
:1028000021D00001A60E766F000E776F1BD036C266
:102810007EF037C27FF00001C00E7B6F020E7C6F2E
:10282000806B816B7D8F12000001C00E766F020EEF
:10283000776F070E796F7A6BC10E786F120032C214
:10284000A1F00001788F12000201C06B4B0EC16F26
:10285000C26BC36BC46BC56B080EC66F0001956B72
:102860001A0EE66E010EE66E5AEC09F0E552E552DC
:102870001E0EE66E020EE66E5AEC09F0E552E552C7
:10288000400EE66E800EE66E020EE66EE66A020E00
:10289000E66E91EC09F00B6E050EE15E0B50F3CF86
:1028A0009DF0F4CF9EF000019F6BA06B966B120021
:1028B000D9CFE6FFE1CFD9FFFD0EDBCF06F0FE0E4C
:1028C000DBCF07F0050E061801E1075002E0000E0D
:1028D00030D0FB0EDBCF0BF0FC0EDBCF0CF0000199
:1028E0009D510B1816E19E510C1813E1400EE66E37
:1028F000800EE66E020EE66EE66A020EE66E91EC61
:1029000009F00B6E050EE15E0B50F3CF9DF0F4CF96
:102910009EF0FB0EDBCF0BF0FC0EDBCF0CF00001CA
:102920009F510B1805E1A0510C1802E1966B9B6BAF
:10293000010EE552E7CFD9FF1200D9CFE6FFE1CF74
:10294000D9FF0001956B9D519E1102E1000E08D048
:102950009DC0E9FF9EC0EAFFEF50800B01E0010E31
:10296000000945E1FC0EDBCF0BF09DC0E9FF9EC0E6
:10297000EAFFEE52EF50D8800B5408E29DC0E9FF09
:102980009EC0EAFFEE52FC0EEFCFDBFF956BFC0E14
:10299000DB50955D19E29551EA6A800FE96E020EEF
:1029A000EA22EF50E66E9551E76EFD0EDBCFE9FFB0
:1029B000FE0EDBCFEAFFE750E926000EEA22E552E1
:1029C000E750EF6E952BE3D7400EE66E800EE66E75
:1029D000020EE66EE66A020EE66E91EC09F00B6EF0
:1029E000050EE15E0B50F3CF9DF0F4CF9EF0000199
:1029F0009551E552E7CFD9FF1200D9CFE6FFE1CFDD
:102A0000D9FFA094000196510CE1FD0EDBCF97F0A9
:102A1000FE0EDBCF98F0FC0EDBCF9BF0010E9C6F1F
:102A2000966FA084E552E7CFD9FF1200D9CFE6FF19
:102A3000E1CFD9FF030EE126A094000196512DE1CC
:102A4000DF6AFD0EDBCF06F0FE0EDBCF07F0DE52B5
:102A500006C0DEFF07C0DDFFDD52DF2ADF500B6E50
:102A60000C6AFF0E0B1802E10C500BE0010EDBCFDD
:102A7000E9FFDB2A020EDBCFEAFF01E3DB2AEF509E
:102A8000ECE1FD0EDBCF97F0FE0EDBCF98F0DFCF51
:102A90009BF00001010E9C6F966FA084030EE15C19
:102AA00002E2E16AE552E16EE552E7CFD9FF12009A
:102AB000D9CFE6FFE1CFD9FF030EE126A0940001B4
:102AC00096512EE1DF6AFD0EDBCF06F0FE0EDBCF66
:102AD00007F0DE5206C0DEFF07C0DDFFDD52DF2A51
:102AE000DF500B6E0C6AFF0E0B1802E10C500CE06D
:102AF000010EDBCFF6FFDB2A020EDBCFF7FF01E38F
:102B0000DB2A0800F550EBE1FD0EDBCF97F0FE0E5F
:102B1000DBCF98F0DFCF9BF000019C6B010E966F2E
:102B2000A084030EE15C02E2E16AE552E16EE55247
:102B3000E7CFD9FF1200D9CFE6FFE1CFD9FF020ED0
:102B4000E126A09400019F51A01102E1000E08D0DF
:102B50009FC0E9FFA0C0EAFFEF50800B01E0010E2B
:102B6000000906E1030E965D01E1966B965102E1C4
:102B7000A0847ED0020E965D16E1E66A000EE66E37
:102B8000E66A010EE66E020EE66E91EC09F00B6E3F
:102B9000050EE15E0B50F3CF9FF0F4CFA0F00001E3
:102BA000030E966F64D0960562E1400E0B6E0C6AC0
:102BB0009B510B5C000E0C5803E2400EDF6E02D0FE
:102BC0009BC0DFFFDF509B5D9B6F400E996F020E35
:102BD0009A6F010EDFCFDBFF9C5116E1010EDB5037
:102BE00028E097C0F6FF98C0F7FF0800F55099C09D
:102BF000E9FF9AC0EAFFEF6E992B000E9A23972BFC
:102C00009823010EDB06EAD7010EDB5012E097C0D5
:102C1000E9FF98C0EAFFEF5099C0E9FF9AC0EAFFC8
:102C2000EF6E992B000E9A23972B9823010EDB064B
:102C3000EBD700019B5107E1400EDF5C02E1020E81
:102C400001D0030E966FDFCFE6FF400EE66E020E58
:102C5000E66E010EE66E020EE66E91EC09F00B6E6A
:102C6000050EE15E0B50F3CF9FF0F4CFA0F0A084EF
:102C7000020EE15C02E2E16AE552E16EE552E7CF65
:042C8000D9FF120066
:0C2C84001201000202000008D804AA009F
:102C900000010102000109024300020100C03209E3
:102CA00004000001020201000524001001042402B6
:102CB000020524060001052401000107058103081F
:102CC000000209040100020A000000070502024098
:102CD0000000070582024000000403090420034DA0
:102CE0000061006B0069006E006700200044006511
:102CF000007600690063006500730020002C034328
:102D000000440043002000200054004300440045DC
:102D1000005600490043004500200020004C004FB1
:102D2000004700470045005200962CD92CDD2CFDB1
:012D30002C76
:0E2D32001E0EF66E100EF76E000EF86E01010A
:102D40000900F550EA6F0900F550EB6F03E1EA67FF
:102D500001D03DD00900F550E56F0900F550E66F50
:102D60000900F550E76F09000900F550E96E090008
:102D7000F550EA6E090009000900F550E86F0900F6
:102D8000F550E96F09000900F6CFECF1F7CFEDF14E
:102D9000F8CFEEF1E5C1F6FFE6C1F7FFE7C1F8FFB6
:102DA0000101E85302E1E95307E00900F550EE6E36
:102DB000E807F8E2E907F9D7ECC1F6FFEDC1F7FF44
:102DC000EEC1F8FF0101EA07000EEB5BBFD712006E
:102DD000D9CFE6FFDACFE6FFE1CFD9FFE2CFDAFFC6
:102DE0003F0EC716C66AFD0EDB50C612FB0EDB5047
:102DF000C712FC0EDB50030A09E0010A04E0020AD4
:102E000006E1C78C04D0C78CC68801D0C688FD0EE9
:102E1000DB50050A05E0010A05E1938C948C03D090
:102E2000938C01D0939C949E9388C68AE552E5CFFB
:082E3000DAFFE7CFD9FF120021
:082E3800FE0EE3CFE9FFFF0EDF
:102E4000E3CFEAFFE9CFF3FFEACFF4FFFB0EE35055
:102E500003E1FC0EE35009E0FB0EE30602E2FC0E88
:0C2E6000E306FD0EE350EE6EF1D7120009
:042E6C00D9CFE6FFD5
:102E7000DACFE6FFE1CFD9FFE2CFDAFFE652C95061
:102E8000DF6E9E96C96A9EA6FED7C950E552E552EE
:0A2E9000E5CFDAFFE7CFD9FF12000B
:062E9A00000EF36E00EED5
:102EA00000F0030E01D81200EA6002D0EE6AFCD7EF
:0A2EB000F350E9601200EE6AFCD74F
:062EBA0011EE00F021EE14
:102EC00000F0F86A0A9C99EC16F007EC08F083EC25
:062ED00012F0FBD7120016
:020000040030CA
:0100000000FF
:0100010032CC
:0100020003FA
:010003001EDE
:0100050000FA
:010006008178
:0100080003F4
:01000900C036
:01000A0003F2
:01000B00E014
:01000C0003F0
:01000D0040B2
:00000001FF
